{
  "_format": "hh3-artifact-1",
  "contractName": "Owner",
  "sourceName": "contracts/Owner.sol",
  "abi": [
    {
      "inputs": [],
      "stateMutability": "nonpayable",
      "type": "constructor"
    },
    {
      "anonymous": false,
      "inputs": [
        {
          "indexed": true,
          "internalType": "address",
          "name": "oldOwner",
          "type": "address"
        },
        {
          "indexed": true,
          "internalType": "address",
          "name": "newOwner",
          "type": "address"
        }
      ],
      "name": "OwnerSet",
      "type": "event"
    },
    {
      "inputs": [
        {
          "internalType": "address",
          "name": "newOwner",
          "type": "address"
        }
      ],
      "name": "changeOwner",
      "outputs": [],
      "stateMutability": "nonpayable",
      "type": "function"
    },
    {
      "inputs": [],
      "name": "getOwner",
      "outputs": [
        {
          "internalType": "address",
          "name": "",
          "type": "address"
        }
      ],
      "stateMutability": "view",
      "type": "function"
    }
  ],
  "bytecode": "0x608060405234801561000f575f5ffd5b5060408051808201909152601b81527f4f776e657220636f6e7472616374206465706c6f7965642062793a0000000000602082015261004e9033610091565b5f80546001600160a01b0319163390811782556040519091907f342827c97908e5e2f71151c08502a66d44b6f758e3ac2f1de95f02eb95f0a735908290a361015a565b6100da82826040516024016100a7929190610113565b60408051601f198184030181529190526020810180516001600160e01b0390811663319af33360e01b179091526100de16565b5050565b6100f1816100f460201b61017f1760201c565b50565b5f6a636f6e736f6c652e6c6f6790505f5f835160208501845afa505050565b604081525f83518060408401528060208601606085015e5f60608285018101919091526001600160a01b03949094166020840152601f01601f191690910190910192915050565b61021f806101675f395ff3fe608060405234801561000f575f5ffd5b5060043610610034575f3560e01c8063893d20e814610038578063a6f9dae114610056575b5f5ffd5b5f54604080516001600160a01b039092168252519081900360200190f35b6100696100643660046101a8565b61006b565b005b5f546001600160a01b031633146100bf5760405162461bcd60e51b815260206004820152601360248201527221b0b63632b91034b9903737ba1037bbb732b960691b60448201526064015b60405180910390fd5b6001600160a01b0381166101265760405162461bcd60e51b815260206004820152602860248201527f4e6577206f776e65722073686f756c64206e6f7420626520746865207a65726f604482015267206164647265737360c01b60648201526084016100b6565b5f80546040516001600160a01b03808516939216917f342827c97908e5e2f71151c08502a66d44b6f758e3ac2f1de95f02eb95f0a73591a35f80546001600160a01b0319166001600160a01b0392909216919091179055565b5f6a636f6e736f6c652e6c6f6790505f5f835160208501845afa505050565b6101a66101d5565b565b5f602082840312156101b8575f5ffd5b81356001600160a01b03811681146101ce575f5ffd5b9392505050565b634e487b7160e01b5f52605160045260245ffdfea2646970667358221220d0b590aaa2adb23f6a27f1916990ffac9c397ba6d0375c7b380fd026fd68da2264736f6c634300081e0033",
  "linkReferences": {},
  "deployedLinkReferences": {},
  "immutableReferences": {},
  "inputSourceName": "project/contracts/Owner.sol",
  "buildInfoId": "solc-0_8_30-65b665c0c32028578ed43f8e59bbfd3e63b3e4d9"
}