{
  "_format": "hh3-artifact-1",
  "contractName": "Greeter",
  "sourceName": "contracts/Greeter.sol",
  "abi": [
    {
      "inputs": [],
      "name": "getMessage",
      "outputs": [
        {
          "internalType": "string",
          "name": "",
          "type": "string"
        }
      ],
      "stateMutability": "view",
      "type": "function"
    },
    {
      "inputs": [
        {
          "internalType": "string",
          "name": "_text",
          "type": "string"
        }
      ],
      "name": "setMessage",
      "outputs": [],
      "stateMutability": "nonpayable",
      "type": "function"
    },
    {
      "inputs": [],
      "name": "text",
      "outputs": [
        {
          "internalType": "string",
          "name": "",
          "type": "string"
        }
      ],
      "stateMutability": "view",
      "type": "function"
    }
  ],
  "bytecode": "0x6080604052348015600e575f5ffd5b506104188061001c5f395ff3fe608060405234801561000f575f5ffd5b506004361061003f575f3560e01c80631f1bd69214610043578063368b877214610061578063ce6d41de14610076575b5f5ffd5b61004b61007e565b60405161005891906101a7565b60405180910390f35b61007461006f3660046101f0565b610109565b005b61004b610118565b5f805461008a906102a3565b80601f01602080910402602001604051908101604052809291908181526020018280546100b6906102a3565b80156101015780601f106100d857610100808354040283529160200191610101565b820191905f5260205f20905b8154815290600101906020018083116100e457829003601f168201915b505050505081565b5f6101148282610327565b5050565b60605f8054610126906102a3565b80601f0160208091040260200160405190810160405280929190818152602001828054610152906102a3565b801561019d5780601f106101745761010080835404028352916020019161019d565b820191905f5260205f20905b81548152906001019060200180831161018057829003601f168201915b5050505050905090565b602081525f82518060208401528060208501604085015e5f604082850101526040601f19601f83011684010191505092915050565b634e487b7160e01b5f52604160045260245ffd5b5f60208284031215610200575f5ffd5b813567ffffffffffffffff811115610216575f5ffd5b8201601f81018413610226575f5ffd5b803567ffffffffffffffff811115610240576102406101dc565b604051601f8201601f19908116603f0116810167ffffffffffffffff8111828210171561026f5761026f6101dc565b604052818152828201602001861015610286575f5ffd5b816020840160208301375f91810160200191909152949350505050565b600181811c908216806102b757607f821691505b6020821081036102d557634e487b7160e01b5f52602260045260245ffd5b50919050565b601f82111561032257805f5260205f20601f840160051c810160208510156103005750805b601f840160051c820191505b8181101561031f575f815560010161030c565b50505b505050565b815167ffffffffffffffff811115610341576103416101dc565b6103558161034f84546102a3565b846102db565b6020601f821160018114610387575f83156103705750848201515b5f19600385901b1c1916600184901b17845561031f565b5f84815260208120601f198516915b828110156103b65787850151825560209485019460019092019101610396565b50848210156103d357868401515f19600387901b60f8161c191681555b50505050600190811b0190555056fea2646970667358221220089a598ee46e219b40260dbcfe1f0b766938156536a5ac0823ad3c67b33dd11564736f6c634300081e0033",
  "linkReferences": {},
  "deployedLinkReferences": {},
  "immutableReferences": {},
  "inputSourceName": "project/contracts/Greeter.sol",
  "buildInfoId": "solc-0_8_30-c65adb1894d1bf434f6aab43313bc43043730ac5"
}